{
  "_format": "hh-sol-artifact-1",
  "contractName": "RWAVault",
  "sourceName": "contracts/vaults/RWAVault.sol",
  "abi": [
    {
      "inputs": [
        {
          "internalType": "address",
          "name": "_asset",
          "type": "address"
        },
        {
          "internalType": "address",
          "name": "admin",
          "type": "address"
        },
        {
          "internalType": "string",
          "name": "_name",
          "type": "string"
        }
      ],
      "stateMutability": "nonpayable",
      "type": "constructor"
    },
    {
      "inputs": [],
      "name": "AccessControlBadConfirmation",
      "type": "error"
    },
    {
      "inputs": [
        {
          "internalType": "address",
          "name": "account",
          "type": "address"
        },
        {
          "internalType": "bytes32",
          "name": "neededRole",
          "type": "bytes32"
        }
      ],
      "name": "AccessControlUnauthorizedAccount",
      "type": "error"
    },
    {
      "inputs": [],
      "name": "AssetAlreadyExists",
      "type": "error"
    },
    {
      "inputs": [],
      "name": "AssetNotFound",
      "type": "error"
    },
    {
      "inputs": [],
      "name": "EnforcedPause",
      "type": "error"
    },
    {
      "inputs": [],
      "name": "ExpectedPause",
      "type": "error"
    },
    {
      "inputs": [],
      "name": "InsufficientShares",
      "type": "error"
    },
    {
      "inputs": [],
      "name": "InvalidAmount",
      "type": "error"
    },
    {
      "inputs": [],
      "name": "ReentrancyGuardReentrantCall",
      "type": "error"
    },
    {
      "inputs": [
        {
          "internalType": "address",
          "name": "token",
          "type": "address"
        }
      ],
      "name": "SafeERC20FailedOperation",
      "type": "error"
    },
    {
      "anonymous": false,
      "inputs": [
        {
          "indexed": false,
          "internalType": "uint256",
          "name": "newAPY",
          "type": "uint256"
        }
      ],
      "name": "APYUpdated",
      "type": "event"
    },
    {
      "anonymous": false,
      "inputs": [
        {
          "indexed": true,
          "internalType": "address",
          "name": "user",
          "type": "address"
        },
        {
          "indexed": false,
          "internalType": "uint256",
          "name": "amount",
          "type": "uint256"
        },
        {
          "indexed": false,
          "internalType": "uint256",
          "name": "shares",
          "type": "uint256"
        }
      ],
      "name": "Deposit",
      "type": "event"
    },
    {
      "anonymous": false,
      "inputs": [
        {
          "indexed": false,
          "internalType": "address",
          "name": "account",
          "type": "address"
        }
      ],
      "name": "Paused",
      "type": "event"
    },
    {
      "anonymous": false,
      "inputs": [
        {
          "indexed": true,
          "internalType": "string",
          "name": "assetId",
          "type": "string"
        },
        {
          "indexed": false,
          "internalType": "uint256",
          "name": "value",
          "type": "uint256"
        },
        {
          "indexed": false,
          "internalType": "string",
          "name": "assetType",
          "type": "string"
        }
      ],
      "name": "RWAAssetAdded",
      "type": "event"
    },
    {
      "anonymous": false,
      "inputs": [
        {
          "indexed": true,
          "internalType": "string",
          "name": "assetId",
          "type": "string"
        },
        {
          "indexed": false,
          "internalType": "uint256",
          "name": "oldValue",
          "type": "uint256"
        },
        {
          "indexed": false,
          "internalType": "uint256",
          "name": "newValue",
          "type": "uint256"
        }
      ],
      "name": "RWAAssetUpdated",
      "type": "event"
    },
    {
      "anonymous": false,
      "inputs": [
        {
          "indexed": true,
          "internalType": "bytes32",
          "name": "role",
          "type": "bytes32"
        },
        {
          "indexed": true,
          "internalType": "bytes32",
          "name": "previousAdminRole",
          "type": "bytes32"
        },
        {
          "indexed": true,
          "internalType": "bytes32",
          "name": "newAdminRole",
          "type": "bytes32"
        }
      ],
      "name": "RoleAdminChanged",
      "type": "event"
    },
    {
      "anonymous": false,
      "inputs": [
        {
          "indexed": true,
          "internalType": "bytes32",
          "name": "role",
          "type": "bytes32"
        },
        {
          "indexed": true,
          "internalType": "address",
          "name": "account",
          "type": "address"
        },
        {
          "indexed": true,
          "internalType": "address",
          "name": "sender",
          "type": "address"
        }
      ],
      "name": "RoleGranted",
      "type": "event"
    },
    {
      "anonymous": false,
      "inputs": [
        {
          "indexed": true,
          "internalType": "bytes32",
          "name": "role",
          "type": "bytes32"
        },
        {
          "indexed": true,
          "internalType": "address",
          "name": "account",
          "type": "address"
        },
        {
          "indexed": true,
          "internalType": "address",
          "name": "sender",
          "type": "address"
        }
      ],
      "name": "RoleRevoked",
      "type": "event"
    },
    {
      "anonymous": false,
      "inputs": [
        {
          "indexed": false,
          "internalType": "address",
          "name": "account",
          "type": "address"
        }
      ],
      "name": "Unpaused",
      "type": "event"
    },
    {
      "anonymous": false,
      "inputs": [
        {
          "indexed": true,
          "internalType": "address",
          "name": "user",
          "type": "address"
        },
        {
          "indexed": false,
          "internalType": "uint256",
          "name": "shares",
          "type": "uint256"
        },
        {
          "indexed": false,
          "internalType": "uint256",
          "name": "amount",
          "type": "uint256"
        }
      ],
      "name": "Withdraw",
      "type": "event"
    },
    {
      "anonymous": false,
      "inputs": [
        {
          "indexed": false,
          "internalType": "uint256",
          "name": "totalYield",
          "type": "uint256"
        }
      ],
      "name": "YieldGenerated",
      "type": "event"
    },
    {
      "inputs": [],
      "name": "ASSET_MANAGER_ROLE",
      "outputs": [
        {
          "internalType": "bytes32",
          "name": "",
          "type": "bytes32"
        }
      ],
      "stateMutability": "view",
      "type": "function"
    },
    {
      "inputs": [],
      "name": "DEFAULT_ADMIN_ROLE",
      "outputs": [
        {
          "internalType": "bytes32",
          "name": "",
          "type": "bytes32"
        }
      ],
      "stateMutability": "view",
      "type": "function"
    },
    {
      "inputs": [],
      "name": "VAULT_MANAGER_ROLE",
      "outputs": [
        {
          "internalType": "bytes32",
          "name": "",
          "type": "bytes32"
        }
      ],
      "stateMutability": "view",
      "type": "function"
    },
    {
      "inputs": [
        {
          "internalType": "string",
          "name": "assetId",
          "type": "string"
        },
        {
          "internalType": "uint256",
          "name": "value",
          "type": "uint256"
        },
        {
          "internalType": "string",
          "name": "assetType",
          "type": "string"
        }
      ],
      "name": "addRWAAsset",
      "outputs": [],
      "stateMutability": "nonpayable",
      "type": "function"
    },
    {
      "inputs": [],
      "name": "asset",
      "outputs": [
        {
          "internalType": "contract IERC20",
          "name": "",
          "type": "address"
        }
      ],
      "stateMutability": "view",
      "type": "function"
    },
    {
      "inputs": [
        {
          "internalType": "uint256",
          "name": "",
          "type": "uint256"
        }
      ],
      "name": "assetIds",
      "outputs": [
        {
          "internalType": "string",
          "name": "",
          "type": "string"
        }
      ],
      "stateMutability": "view",
      "type": "function"
    },
    {
      "inputs": [
        {
          "internalType": "address",
          "name": "user",
          "type": "address"
        }
      ],
      "name": "balanceOf",
      "outputs": [
        {
          "internalType": "uint256",
          "name": "",
          "type": "uint256"
        }
      ],
      "stateMutability": "view",
      "type": "function"
    },
    {
      "inputs": [],
      "name": "currentAPY",
      "outputs": [
        {
          "internalType": "uint256",
          "name": "",
          "type": "uint256"
        }
      ],
      "stateMutability": "view",
      "type": "function"
    },
    {
      "inputs": [
        {
          "internalType": "address",
          "name": "user",
          "type": "address"
        },
        {
          "internalType": "uint256",
          "name": "amount",
          "type": "uint256"
        }
      ],
      "name": "deposit",
      "outputs": [],
      "stateMutability": "nonpayable",
      "type": "function"
    },
    {
      "inputs": [
        {
          "internalType": "address",
          "name": "user",
          "type": "address"
        }
      ],
      "name": "emergencyWithdraw",
      "outputs": [],
      "stateMutability": "nonpayable",
      "type": "function"
    },
    {
      "inputs": [],
      "name": "getAssetCount",
      "outputs": [
        {
          "internalType": "uint256",
          "name": "",
          "type": "uint256"
        }
      ],
      "stateMutability": "view",
      "type": "function"
    },
    {
      "inputs": [
        {
          "internalType": "string",
          "name": "assetId",
          "type": "string"
        }
      ],
      "name": "getRWAAsset",
      "outputs": [
        {
          "components": [
            {
              "internalType": "uint256",
              "name": "value",
              "type": "uint256"
            },
            {
              "internalType": "uint256",
              "name": "purchasePrice",
              "type": "uint256"
            },
            {
              "internalType": "uint256",
              "name": "yield",
              "type": "uint256"
            },
            {
              "internalType": "bool",
              "name": "isActive",
              "type": "bool"
            },
            {
              "internalType": "string",
              "name": "assetType",
              "type": "string"
            }
          ],
          "internalType": "struct RWAVault.RWAAsset",
          "name": "",
          "type": "tuple"
        }
      ],
      "stateMutability": "view",
      "type": "function"
    },
    {
      "inputs": [
        {
          "internalType": "bytes32",
          "name": "role",
          "type": "bytes32"
        }
      ],
      "name": "getRoleAdmin",
      "outputs": [
        {
          "internalType": "bytes32",
          "name": "",
          "type": "bytes32"
        }
      ],
      "stateMutability": "view",
      "type": "function"
    },
    {
      "inputs": [],
      "name": "getVaultInfo",
      "outputs": [
        {
          "internalType": "string",
          "name": "name",
          "type": "string"
        },
        {
          "internalType": "string",
          "name": "description",
          "type": "string"
        },
        {
          "internalType": "address",
          "name": "assetAddr",
          "type": "address"
        },
        {
          "internalType": "uint256",
          "name": "totalSharesOut",
          "type": "uint256"
        },
        {
          "internalType": "uint256",
          "name": "totalAssetsValue",
          "type": "uint256"
        },
        {
          "internalType": "uint256",
          "name": "apy",
          "type": "uint256"
        }
      ],
      "stateMutability": "view",
      "type": "function"
    },
    {
      "inputs": [
        {
          "internalType": "bytes32",
          "name": "role",
          "type": "bytes32"
        },
        {
          "internalType": "address",
          "name": "account",
          "type": "address"
        }
      ],
      "name": "grantRole",
      "outputs": [],
      "stateMutability": "nonpayable",
      "type": "function"
    },
    {
      "inputs": [],
      "name": "harvest",
      "outputs": [],
      "stateMutability": "nonpayable",
      "type": "function"
    },
    {
      "inputs": [
        {
          "internalType": "bytes32",
          "name": "role",
          "type": "bytes32"
        },
        {
          "internalType": "address",
          "name": "account",
          "type": "address"
        }
      ],
      "name": "hasRole",
      "outputs": [
        {
          "internalType": "bool",
          "name": "",
          "type": "bool"
        }
      ],
      "stateMutability": "view",
      "type": "function"
    },
    {
      "inputs": [],
      "name": "lastUpdateTime",
      "outputs": [
        {
          "internalType": "uint256",
          "name": "",
          "type": "uint256"
        }
      ],
      "stateMutability": "view",
      "type": "function"
    },
    {
      "inputs": [],
      "name": "pause",
      "outputs": [],
      "stateMutability": "nonpayable",
      "type": "function"
    },
    {
      "inputs": [],
      "name": "paused",
      "outputs": [
        {
          "internalType": "bool",
          "name": "",
          "type": "bool"
        }
      ],
      "stateMutability": "view",
      "type": "function"
    },
    {
      "inputs": [
        {
          "internalType": "bytes32",
          "name": "role",
          "type": "bytes32"
        },
        {
          "internalType": "address",
          "name": "callerConfirmation",
          "type": "address"
        }
      ],
      "name": "renounceRole",
      "outputs": [],
      "stateMutability": "nonpayable",
      "type": "function"
    },
    {
      "inputs": [
        {
          "internalType": "bytes32",
          "name": "role",
          "type": "bytes32"
        },
        {
          "internalType": "address",
          "name": "account",
          "type": "address"
        }
      ],
      "name": "revokeRole",
      "outputs": [],
      "stateMutability": "nonpayable",
      "type": "function"
    },
    {
      "inputs": [
        {
          "internalType": "string",
          "name": "",
          "type": "string"
        }
      ],
      "name": "rwaAssets",
      "outputs": [
        {
          "internalType": "uint256",
          "name": "value",
          "type": "uint256"
        },
        {
          "internalType": "uint256",
          "name": "purchasePrice",
          "type": "uint256"
        },
        {
          "internalType": "uint256",
          "name": "yield",
          "type": "uint256"
        },
        {
          "internalType": "bool",
          "name": "isActive",
          "type": "bool"
        },
        {
          "internalType": "string",
          "name": "assetType",
          "type": "string"
        }
      ],
      "stateMutability": "view",
      "type": "function"
    },
    {
      "inputs": [
        {
          "internalType": "uint256",
          "name": "newAPY",
          "type": "uint256"
        }
      ],
      "name": "setAPY",
      "outputs": [],
      "stateMutability": "nonpayable",
      "type": "function"
    },
    {
      "inputs": [],
      "name": "sharePrice",
      "outputs": [
        {
          "internalType": "uint256",
          "name": "",
          "type": "uint256"
        }
      ],
      "stateMutability": "view",
      "type": "function"
    },
    {
      "inputs": [
        {
          "internalType": "bytes4",
          "name": "interfaceId",
          "type": "bytes4"
        }
      ],
      "name": "supportsInterface",
      "outputs": [
        {
          "internalType": "bool",
          "name": "",
          "type": "bool"
        }
      ],
      "stateMutability": "view",
      "type": "function"
    },
    {
      "inputs": [],
      "name": "totalAssetValue",
      "outputs": [
        {
          "internalType": "uint256",
          "name": "",
          "type": "uint256"
        }
      ],
      "stateMutability": "view",
      "type": "function"
    },
    {
      "inputs": [],
      "name": "totalAssets",
      "outputs": [
        {
          "internalType": "uint256",
          "name": "",
          "type": "uint256"
        }
      ],
      "stateMutability": "view",
      "type": "function"
    },
    {
      "inputs": [],
      "name": "totalShares",
      "outputs": [
        {
          "internalType": "uint256",
          "name": "",
          "type": "uint256"
        }
      ],
      "stateMutability": "view",
      "type": "function"
    },
    {
      "inputs": [],
      "name": "unpause",
      "outputs": [],
      "stateMutability": "nonpayable",
      "type": "function"
    },
    {
      "inputs": [
        {
          "internalType": "string",
          "name": "assetId",
          "type": "string"
        },
        {
          "internalType": "uint256",
          "name": "newValue",
          "type": "uint256"
        }
      ],
      "name": "updateRWAAssetValue",
      "outputs": [],
      "stateMutability": "nonpayable",
      "type": "function"
    },
    {
      "inputs": [
        {
          "internalType": "address",
          "name": "user",
          "type": "address"
        },
        {
          "internalType": "uint256",
          "name": "sharesToBurn",
          "type": "uint256"
        }
      ],
      "name": "withdraw",
      "outputs": [
        {
          "internalType": "uint256",
          "name": "amount",
          "type": "uint256"
        }
      ],
      "stateMutability": "nonpayable",
      "type": "function"
    }
  ],
  "bytecode": "0x60a06040523480156200001157600080fd5b50604051620020823803806200208283398101604081905262000034916200019d565b60016002556001600160a01b0383166080524260055562000057600083620000bb565b50620000847fd1473398bb66596de5d1ea1fc8e303ff2ac23265adc9144b1b52065dc4f0934b83620000bb565b50620000b17fb1fadd3142ab2ad7f1337ea4d97112bcc8337fc11ce5b20cb04ad038adf9981983620000bb565b5050505062000297565b6000828152602081815260408083206001600160a01b038516845290915281205460ff1662000160576000838152602081815260408083206001600160a01b03861684529091529020805460ff19166001179055620001173390565b6001600160a01b0316826001600160a01b0316847f2f8788117e7eff1d82e926ec794901d17c78024a50270940304540a733656f0d60405160405180910390a450600162000164565b5060005b92915050565b80516001600160a01b03811681146200018257600080fd5b919050565b634e487b7160e01b600052604160045260246000fd5b600080600060608486031215620001b357600080fd5b620001be846200016a565b92506020620001cf8186016200016a565b60408601519093506001600160401b0380821115620001ed57600080fd5b818701915087601f8301126200020257600080fd5b81518181111562000217576200021762000187565b604051601f8201601f19908116603f0116810190838211818310171562000242576200024262000187565b816040528281528a868487010111156200025b57600080fd5b600093505b828410156200027f578484018601518185018701529285019262000260565b60008684830101528096505050505050509250925092565b608051611d9e620002e4600039600081816102da015281816104b501528181610b5301528181610c1f01528181610ce801528181610d1e0152818161110801526111960152611d9e6000f3fe608060405234801561001057600080fd5b50600436106101f05760003560e01c80636ff1c9bc1161010f57806391d14854116100a2578063a4b32de811610071578063a4b32de814610453578063c8f33c9114610468578063d547741f14610471578063f3fef3a31461048457600080fd5b806391d14854146104275780639a79d32b1461043a578063a0aead4d14610443578063a217fddf1461044b57600080fd5b806387269729116100de57806387269729146103e357806387541ed6146103eb5780638eb390c81461040b5780638f90ae5a1461041e57600080fd5b80636ff1c9bc1461038557806370a08231146103985780637f98aa71146103c15780638456cb59146103db57600080fd5b806338d52e0f116101875780634641257d116101565780634641257d1461033857806347e7ef24146103405780635c975abb146103535780635e5a24a41461035e57600080fd5b806338d52e0f146102d55780633a98ef39146103145780633f4ba83a1461031d5780634611a9e61461032557600080fd5b806324f45e67116101c357806324f45e67146102765780632f2ff15d1461028b578063304a131c1461029e57806336568abe146102c257600080fd5b806301e1d114146101f557806301ffc9a71461021057806316107a3314610233578063248a9ca314610253575b600080fd5b6101fd610497565b6040519081526020015b60405180910390f35b61022361021e36600461160d565b610537565b6040519015158152602001610207565b610246610241366004611687565b61056e565b604051610207919061170f565b6101fd61026136600461175c565b60009081526020819052604090206001015490565b61028961028436600461175c565b610696565b005b610289610299366004611791565b610730565b6102b16102ac3660046117d3565b61075b565b604051610207959493929190611884565b6102896102d0366004611791565b610823565b6102fc7f000000000000000000000000000000000000000000000000000000000000000081565b6040516001600160a01b039091168152602001610207565b6101fd60035481565b61028961085b565b6102896103333660046118bc565b610871565b610289610a47565b61028961034e366004611936565b610a67565b60015460ff16610223565b6101fd7fd1473398bb66596de5d1ea1fc8e303ff2ac23265adc9144b1b52065dc4f0934b81565b610289610393366004611960565b610bca565b6101fd6103a6366004611960565b6001600160a01b031660009081526007602052604090205490565b6103c9610d13565b6040516102079695949392919061197b565b610289610d9d565b6101fd610db0565b6103fe6103f936600461175c565b610df0565b60405161020791906119cf565b6102896104193660046119e2565b610e9c565b6101fd60045481565b610223610435366004611791565b610f9a565b6101fd60065481565b6009546101fd565b6101fd600081565b6101fd600080516020611d4983398151915281565b6101fd60055481565b61028961047f366004611791565b610fc3565b6101fd610492366004611936565b610fe8565b600480546040516370a0823160e01b815230928101929092526000917f00000000000000000000000000000000000000000000000000000000000000006001600160a01b0316906370a0823190602401602060405180830381865afa158015610504573d6000803e3d6000fd5b505050506040513d601f19601f820116820180604052508101906105289190611a2e565b6105329190611a5d565b905090565b60006001600160e01b03198216637965db0b60e01b148061056857506301ffc9a760e01b6001600160e01b03198316145b92915050565b6105a26040518060a00160405280600081526020016000815260200160008152602001600015158152602001606081525090565b600883836040516105b4929190611a70565b90815260408051918290036020908101832060a08401835280548452600181015491840191909152600281015491830191909152600381015460ff161515606083015260048101805460808401919061060c90611a80565b80601f016020809104026020016040519081016040528092919081815260200182805461063890611a80565b80156106855780601f1061065a57610100808354040283529160200191610685565b820191906000526020600020905b81548152906001019060200180831161066857829003601f168201915b505050505081525050905092915050565b600080516020611d498339815191526106ae81611213565b6113888211156106f45760405162461bcd60e51b815260206004820152600c60248201526b082a0b240e8dede40d0d2ced60a31b60448201526064015b60405180910390fd5b60068290556040518281527f5d96611557274413c64267972d202ca41009c399954bcb4cbab17d2a5156fbb09060200160405180910390a15050565b60008281526020819052604090206001015461074b81611213565b610755838361121d565b50505050565b80516020818301810180516008825292820191909301209152805460018201546002830154600384015460048501805494959394929360ff909216926107a090611a80565b80601f01602080910402602001604051908101604052809291908181526020018280546107cc90611a80565b80156108195780601f106107ee57610100808354040283529160200191610819565b820191906000526020600020905b8154815290600101906020018083116107fc57829003601f168201915b5050505050905085565b6001600160a01b038116331461084c5760405163334bd91960e11b815260040160405180910390fd5b61085682826112af565b505050565b600061086681611213565b61086e61131a565b50565b600080516020611d4983398151915261088981611213565b6008868660405161089b929190611a70565b9081526040519081900360200190206003015460ff16156108cf5760405163dc0d0aab60e01b815260040160405180910390fd5b6040518060a001604052808581526020018581526020016000815260200160011515815260200184848080601f01602080910402602001604051908101604052809392919081815260200183838082843760009201919091525050509152506040516008906109419089908990611a70565b9081526040805160209281900383019020835181559183015160018301558201516002820155606082015160038201805460ff1916911515919091179055608082015160048201906109939082611b0a565b5050600980546001810182556000919091527f6e1540171b6c0c960b71a7020d9f60077f6af931a8bbf590da0223dacf75c7af0190506109d4868883611bca565b5083600460008282546109e79190611a5d565b90915550506040516109fc9087908790611a70565b60405180910390207f3264c8b2210f339d2caa13e2f6d37950008caf5471053c6678ecce60c724fb44858585604051610a3793929190611c8b565b60405180910390a2505050505050565b600080516020611d49833981519152610a5f81611213565b61086e61136c565b7fd1473398bb66596de5d1ea1fc8e303ff2ac23265adc9144b1b52065dc4f0934b610a9181611213565b610a9961141f565b610aa1611447565b81600003610ac25760405163162908e360e11b815260040160405180910390fd5b610aca61136c565b6000600354600003610add575081610aff565b610ae5610497565b600354610af29085611cc1565b610afc9190611cd8565b90505b6001600160a01b03841660009081526007602052604081208054839290610b27908490611a5d565b925050819055508060036000828254610b409190611a5d565b90915550610b7b90506001600160a01b037f00000000000000000000000000000000000000000000000000000000000000001633308661146d565b60408051848152602081018390526001600160a01b038616917f90890809c654f11d6e72a28fa60149770a0d11ec6c92319d6ceb2bb0a4ea1a15910160405180910390a2506108566001600255565b6000610bd581611213565b6001600160a01b03821660009081526007602052604081205490819003610bfb57505050565b6003546040516370a0823160e01b8152306004820152600091906001600160a01b037f000000000000000000000000000000000000000000000000000000000000000016906370a0823190602401602060405180830381865afa158015610c66573d6000803e3d6000fd5b505050506040513d601f19601f82011682018060405250810190610c8a9190611a2e565b610c949084611cc1565b610c9e9190611cd8565b6001600160a01b0385166000908152600760205260408120819055600380549293508492909190610cd0908490611cfa565b90915550508015610755576107556001600160a01b037f00000000000000000000000000000000000000000000000000000000000000001685836114d4565b5050565b6060806000806000807f0000000000000000000000000000000000000000000000000000000000000000600354610d48610497565b600654604051806040016040528060098152602001681495d04815985d5b1d60ba1b815250939291906040518060600160405280603b8152602001611d0e603b9139949b949a50929850909650945092509050565b6000610da881611213565b61086e611505565b6000600354600003610dc95750670de0b6b3a764000090565b600354610dd4610497565b610de690670de0b6b3a7640000611cc1565b6105329190611cd8565b60098181548110610e0057600080fd5b906000526020600020016000915090508054610e1b90611a80565b80601f0160208091040260200160405190810160405280929190818152602001828054610e4790611a80565b8015610e945780601f10610e6957610100808354040283529160200191610e94565b820191906000526020600020905b815481529060010190602001808311610e7757829003601f168201915b505050505081565b600080516020611d49833981519152610eb481611213565b600060088585604051610ec8929190611a70565b908152604051908190036020019020600381015490915060ff16610eff5760405163470cbf4760e01b815260040160405180910390fd5b805480841115610f2e578154610f159085611cfa565b826002016000828254610f289190611a5d565b90915550505b8381600454610f3d9190611cfa565b610f479190611a5d565b600455838255604051610f5d9087908790611a70565b6040805191829003822083835260208301879052917fc1953e8a697a70bb630abba3ed7099af7e52f319798d3daf680193d393f85a579101610a37565b6000918252602082815260408084206001600160a01b0393909316845291905290205460ff1690565b600082815260208190526040902060010154610fde81611213565b61075583836112af565b60007fd1473398bb66596de5d1ea1fc8e303ff2ac23265adc9144b1b52065dc4f0934b61101481611213565b61101c61141f565b611024611447565b826000036110455760405163162908e360e11b815260040160405180910390fd5b6001600160a01b03841660009081526007602052604090205483111561107e57604051633999656760e01b815260040160405180910390fd5b61108661136c565b600354611091610497565b61109b9085611cc1565b6110a59190611cd8565b6001600160a01b0385166000908152600760205260408120805492945085929091906110d2908490611cfa565b9250508190555082600360008282546110eb9190611cfa565b90915550506040516370a0823160e01b81523060048201526000907f00000000000000000000000000000000000000000000000000000000000000006001600160a01b0316906370a0823190602401602060405180830381865afa158015611157573d6000803e3d6000fd5b505050506040513d601f19601f8201168201806040525081019061117b9190611a2e565b905082811015611189578092505b6111bd6001600160a01b037f00000000000000000000000000000000000000000000000000000000000000001633856114d4565b60408051858152602081018590526001600160a01b038716917ff279e6a1f5e320cca91135676d9cb6e44ca8a08c0b88342bcdb1144f6511b568910160405180910390a25061120c6001600255565b5092915050565b61086e8133611540565b60006112298383610f9a565b6112a7576000838152602081815260408083206001600160a01b03861684529091529020805460ff1916600117905561125f3390565b6001600160a01b0316826001600160a01b0316847f2f8788117e7eff1d82e926ec794901d17c78024a50270940304540a733656f0d60405160405180910390a4506001610568565b506000610568565b60006112bb8383610f9a565b156112a7576000838152602081815260408083206001600160a01b0386168085529252808320805460ff1916905551339286917ff6391f5c32d9c69d2a47ea670b442974b53935d1edc7fd64eb21e047a839171b9190a4506001610568565b611322611579565b6001805460ff191690557f5db9ee0a495bf2e6ff9c91a7834c1ba4fdd244a5e8aa4e537bd38aeae4b073aa335b6040516001600160a01b03909116815260200160405180910390a1565b60006005544261137c9190611cfa565b905080158061138b5750600454155b15611397575042600555565b600064496cebb800826006546004546113b09190611cc1565b6113ba9190611cc1565b6113c49190611cd8565b905080156114175780600460008282546113de9190611a5d565b90915550506040518181527fba940f7e525c0c7e2b83c7fbf8f07b95c7da51604106be88403040d914a6979b9060200160405180910390a15b505042600555565b600280540361144157604051633ee5aeb560e01b815260040160405180910390fd5b60028055565b60015460ff161561146b5760405163d93c066560e01b815260040160405180910390fd5b565b6040516001600160a01b0384811660248301528381166044830152606482018390526107559186918216906323b872dd906084015b604051602081830303815290604052915060e01b6020820180516001600160e01b03838183161783525050505061159c565b6040516001600160a01b0383811660248301526044820183905261085691859182169063a9059cbb906064016114a2565b61150d611447565b6001805460ff1916811790557f62e78cea01bee320cd4e420270b5ea74000d11b0c9f74754ebdbfc544b05a2583361134f565b61154a8282610f9a565b610d0f5760405163e2517d3f60e01b81526001600160a01b0382166004820152602481018390526044016106eb565b60015460ff1661146b57604051638dfc202b60e01b815260040160405180910390fd5b600080602060008451602086016000885af1806115bf576040513d6000823e3d81fd5b50506000513d915081156115d75780600114156115e4565b6001600160a01b0384163b155b1561075557604051635274afe760e01b81526001600160a01b03851660048201526024016106eb565b60006020828403121561161f57600080fd5b81356001600160e01b03198116811461163757600080fd5b9392505050565b60008083601f84011261165057600080fd5b50813567ffffffffffffffff81111561166857600080fd5b60208301915083602082850101111561168057600080fd5b9250929050565b6000806020838503121561169a57600080fd5b823567ffffffffffffffff8111156116b157600080fd5b6116bd8582860161163e565b90969095509350505050565b6000815180845260005b818110156116ef576020818501810151868301820152016116d3565b506000602082860101526020601f19601f83011685010191505092915050565b602081528151602082015260208201516040820152604082015160608201526060820151151560808201526000608083015160a08084015261175460c08401826116c9565b949350505050565b60006020828403121561176e57600080fd5b5035919050565b80356001600160a01b038116811461178c57600080fd5b919050565b600080604083850312156117a457600080fd5b823591506117b460208401611775565b90509250929050565b634e487b7160e01b600052604160045260246000fd5b6000602082840312156117e557600080fd5b813567ffffffffffffffff808211156117fd57600080fd5b818401915084601f83011261181157600080fd5b813581811115611823576118236117bd565b604051601f8201601f19908116603f0116810190838211818310171561184b5761184b6117bd565b8160405282815287602084870101111561186457600080fd5b826020860160208301376000928101602001929092525095945050505050565b858152846020820152836040820152821515606082015260a0608082015260006118b160a08301846116c9565b979650505050505050565b6000806000806000606086880312156118d457600080fd5b853567ffffffffffffffff808211156118ec57600080fd5b6118f889838a0161163e565b909750955060208801359450604088013591508082111561191857600080fd5b506119258882890161163e565b969995985093965092949392505050565b6000806040838503121561194957600080fd5b61195283611775565b946020939093013593505050565b60006020828403121561197257600080fd5b61163782611775565b60c08152600061198e60c08301896116c9565b82810360208401526119a081896116c9565b6001600160a01b0397909716604084015250506060810193909352608083019190915260a09091015292915050565b60208152600061163760208301846116c9565b6000806000604084860312156119f757600080fd5b833567ffffffffffffffff811115611a0e57600080fd5b611a1a8682870161163e565b909790965060209590950135949350505050565b600060208284031215611a4057600080fd5b5051919050565b634e487b7160e01b600052601160045260246000fd5b8082018082111561056857610568611a47565b8183823760009101908152919050565b600181811c90821680611a9457607f821691505b602082108103611ab457634e487b7160e01b600052602260045260246000fd5b50919050565b601f821115610856576000816000526020600020601f850160051c81016020861015611ae35750805b601f850160051c820191505b81811015611b0257828155600101611aef565b505050505050565b815167ffffffffffffffff811115611b2457611b246117bd565b611b3881611b328454611a80565b84611aba565b602080601f831160018114611b6d5760008415611b555750858301515b600019600386901b1c1916600185901b178555611b02565b600085815260208120601f198616915b82811015611b9c57888601518255948401946001909101908401611b7d565b5085821015611bba5787850151600019600388901b60f8161c191681555b5050505050600190811b01905550565b67ffffffffffffffff831115611be257611be26117bd565b611bf683611bf08354611a80565b83611aba565b6000601f841160018114611c2a5760008515611c125750838201355b600019600387901b1c1916600186901b178355611c84565b600083815260209020601f19861690835b82811015611c5b5786850135825560209485019460019092019101611c3b565b5086821015611c785760001960f88860031b161c19848701351681555b505060018560011b0183555b5050505050565b83815260406020820152816040820152818360608301376000818301606090810191909152601f909201601f1916010192915050565b808202811582820484141761056857610568611a47565b600082611cf557634e487b7160e01b600052601260045260246000fd5b500490565b8181038181111561056857610568611a4756fe5265616c20576f726c6420417373657473207969656c64207661756c74207769746820646976657273696669656420525741206578706f73757265b1fadd3142ab2ad7f1337ea4d97112bcc8337fc11ce5b20cb04ad038adf99819a2646970667358221220ce801d71b786cb4b52f70b67d12cba2d471b44836abcb4f8c4d0f9e4e4d8161264736f6c63430008180033",
  "linkReferences": {},
  "deployedLinkReferences": {}
}