{
  "_format": "hh-sol-artifact-1",
  "contractName": "MockVault",
  "sourceName": "contracts/mocks/MockVault.sol",
  "abi": [
    {
      "inputs": [
        {
          "internalType": "address",
          "name": "_asset",
          "type": "address"
        }
      ],
      "stateMutability": "nonpayable",
      "type": "constructor"
    },
    {
      "inputs": [],
      "name": "AccessControlBadConfirmation",
      "type": "error"
    },
    {
      "inputs": [
        {
          "internalType": "address",
          "name": "account",
          "type": "address"
        },
        {
          "internalType": "bytes32",
          "name": "neededRole",
          "type": "bytes32"
        }
      ],
      "name": "AccessControlUnauthorizedAccount",
      "type": "error"
    },
    {
      "inputs": [
        {
          "internalType": "address",
          "name": "token",
          "type": "address"
        }
      ],
      "name": "SafeERC20FailedOperation",
      "type": "error"
    },
    {
      "anonymous": false,
      "inputs": [
        {
          "indexed": true,
          "internalType": "bytes32",
          "name": "role",
          "type": "bytes32"
        },
        {
          "indexed": true,
          "internalType": "bytes32",
          "name": "previousAdminRole",
          "type": "bytes32"
        },
        {
          "indexed": true,
          "internalType": "bytes32",
          "name": "newAdminRole",
          "type": "bytes32"
        }
      ],
      "name": "RoleAdminChanged",
      "type": "event"
    },
    {
      "anonymous": false,
      "inputs": [
        {
          "indexed": true,
          "internalType": "bytes32",
          "name": "role",
          "type": "bytes32"
        },
        {
          "indexed": true,
          "internalType": "address",
          "name": "account",
          "type": "address"
        },
        {
          "indexed": true,
          "internalType": "address",
          "name": "sender",
          "type": "address"
        }
      ],
      "name": "RoleGranted",
      "type": "event"
    },
    {
      "anonymous": false,
      "inputs": [
        {
          "indexed": true,
          "internalType": "bytes32",
          "name": "role",
          "type": "bytes32"
        },
        {
          "indexed": true,
          "internalType": "address",
          "name": "account",
          "type": "address"
        },
        {
          "indexed": true,
          "internalType": "address",
          "name": "sender",
          "type": "address"
        }
      ],
      "name": "RoleRevoked",
      "type": "event"
    },
    {
      "inputs": [],
      "name": "DEFAULT_ADMIN_ROLE",
      "outputs": [
        {
          "internalType": "bytes32",
          "name": "",
          "type": "bytes32"
        }
      ],
      "stateMutability": "view",
      "type": "function"
    },
    {
      "inputs": [],
      "name": "VAULT_MANAGER_ROLE",
      "outputs": [
        {
          "internalType": "bytes32",
          "name": "",
          "type": "bytes32"
        }
      ],
      "stateMutability": "view",
      "type": "function"
    },
    {
      "inputs": [],
      "name": "asset",
      "outputs": [
        {
          "internalType": "contract IERC20",
          "name": "",
          "type": "address"
        }
      ],
      "stateMutability": "view",
      "type": "function"
    },
    {
      "inputs": [
        {
          "internalType": "address",
          "name": "user",
          "type": "address"
        }
      ],
      "name": "balanceOf",
      "outputs": [
        {
          "internalType": "uint256",
          "name": "",
          "type": "uint256"
        }
      ],
      "stateMutability": "view",
      "type": "function"
    },
    {
      "inputs": [
        {
          "internalType": "address",
          "name": "user",
          "type": "address"
        },
        {
          "internalType": "uint256",
          "name": "amount",
          "type": "uint256"
        }
      ],
      "name": "deposit",
      "outputs": [],
      "stateMutability": "nonpayable",
      "type": "function"
    },
    {
      "inputs": [
        {
          "internalType": "address",
          "name": "user",
          "type": "address"
        }
      ],
      "name": "emergencyWithdraw",
      "outputs": [],
      "stateMutability": "nonpayable",
      "type": "function"
    },
    {
      "inputs": [
        {
          "internalType": "bytes32",
          "name": "role",
          "type": "bytes32"
        }
      ],
      "name": "getRoleAdmin",
      "outputs": [
        {
          "internalType": "bytes32",
          "name": "",
          "type": "bytes32"
        }
      ],
      "stateMutability": "view",
      "type": "function"
    },
    {
      "inputs": [],
      "name": "getVaultInfo",
      "outputs": [
        {
          "internalType": "string",
          "name": "name",
          "type": "string"
        },
        {
          "internalType": "string",
          "name": "description",
          "type": "string"
        },
        {
          "internalType": "address",
          "name": "assetAddr",
          "type": "address"
        },
        {
          "internalType": "uint256",
          "name": "totalSharesOut",
          "type": "uint256"
        },
        {
          "internalType": "uint256",
          "name": "totalAssetsValue",
          "type": "uint256"
        },
        {
          "internalType": "uint256",
          "name": "apy",
          "type": "uint256"
        }
      ],
      "stateMutability": "view",
      "type": "function"
    },
    {
      "inputs": [
        {
          "internalType": "bytes32",
          "name": "role",
          "type": "bytes32"
        },
        {
          "internalType": "address",
          "name": "account",
          "type": "address"
        }
      ],
      "name": "grantRole",
      "outputs": [],
      "stateMutability": "nonpayable",
      "type": "function"
    },
    {
      "inputs": [],
      "name": "harvest",
      "outputs": [],
      "stateMutability": "nonpayable",
      "type": "function"
    },
    {
      "inputs": [
        {
          "internalType": "bytes32",
          "name": "role",
          "type": "bytes32"
        },
        {
          "internalType": "address",
          "name": "account",
          "type": "address"
        }
      ],
      "name": "hasRole",
      "outputs": [
        {
          "internalType": "bool",
          "name": "",
          "type": "bool"
        }
      ],
      "stateMutability": "view",
      "type": "function"
    },
    {
      "inputs": [],
      "name": "pause",
      "outputs": [],
      "stateMutability": "nonpayable",
      "type": "function"
    },
    {
      "inputs": [
        {
          "internalType": "bytes32",
          "name": "role",
          "type": "bytes32"
        },
        {
          "internalType": "address",
          "name": "callerConfirmation",
          "type": "address"
        }
      ],
      "name": "renounceRole",
      "outputs": [],
      "stateMutability": "nonpayable",
      "type": "function"
    },
    {
      "inputs": [
        {
          "internalType": "bytes32",
          "name": "role",
          "type": "bytes32"
        },
        {
          "internalType": "address",
          "name": "account",
          "type": "address"
        }
      ],
      "name": "revokeRole",
      "outputs": [],
      "stateMutability": "nonpayable",
      "type": "function"
    },
    {
      "inputs": [
        {
          "internalType": "uint256",
          "name": "amount",
          "type": "uint256"
        }
      ],
      "name": "setTotalAssets",
      "outputs": [],
      "stateMutability": "nonpayable",
      "type": "function"
    },
    {
      "inputs": [],
      "name": "sharePrice",
      "outputs": [
        {
          "internalType": "uint256",
          "name": "",
          "type": "uint256"
        }
      ],
      "stateMutability": "view",
      "type": "function"
    },
    {
      "inputs": [
        {
          "internalType": "bytes4",
          "name": "interfaceId",
          "type": "bytes4"
        }
      ],
      "name": "supportsInterface",
      "outputs": [
        {
          "internalType": "bool",
          "name": "",
          "type": "bool"
        }
      ],
      "stateMutability": "view",
      "type": "function"
    },
    {
      "inputs": [],
      "name": "totalAssets",
      "outputs": [
        {
          "internalType": "uint256",
          "name": "",
          "type": "uint256"
        }
      ],
      "stateMutability": "view",
      "type": "function"
    },
    {
      "inputs": [],
      "name": "totalShares",
      "outputs": [
        {
          "internalType": "uint256",
          "name": "",
          "type": "uint256"
        }
      ],
      "stateMutability": "view",
      "type": "function"
    },
    {
      "inputs": [],
      "name": "unpause",
      "outputs": [],
      "stateMutability": "nonpayable",
      "type": "function"
    },
    {
      "inputs": [
        {
          "internalType": "address",
          "name": "user",
          "type": "address"
        },
        {
          "internalType": "uint256",
          "name": "sharesToBurn",
          "type": "uint256"
        }
      ],
      "name": "withdraw",
      "outputs": [
        {
          "internalType": "uint256",
          "name": "",
          "type": "uint256"
        }
      ],
      "stateMutability": "nonpayable",
      "type": "function"
    }
  ],
  "bytecode": "0x608060405234801561001057600080fd5b50604051610c56380380610c5683398101604081905261002f91610108565b600180546001600160a01b0319166001600160a01b03831617905561005560003361005c565b5050610138565b6000828152602081815260408083206001600160a01b038516845290915281205460ff166100fe576000838152602081815260408083206001600160a01b03861684529091529020805460ff191660011790556100b63390565b6001600160a01b0316826001600160a01b0316847f2f8788117e7eff1d82e926ec794901d17c78024a50270940304540a733656f0d60405160405180910390a4506001610102565b5060005b92915050565b60006020828403121561011a57600080fd5b81516001600160a01b038116811461013157600080fd5b9392505050565b610b0f806101476000396000f3fe608060405234801561001057600080fd5b50600436106101375760003560e01c806347e7ef24116100b85780638456cb591161007c5780638456cb5914610208578063872697291461030157806391d1485414610309578063a217fddf1461031c578063d547741f14610324578063f3fef3a31461033757600080fd5b806347e7ef24146102105780635e5a24a4146102235780636ff1c9bc1461024a57806370a082311461025d5780637f98aa711461028657600080fd5b806336568abe116100ff57806336568abe146101c157806338d52e0f146101d45780633a98ef39146101ff5780633f4ba83a146102085780634641257d1461018957600080fd5b806301e1d1141461013c57806301ffc9a7146101535780631765b31314610176578063248a9ca31461018b5780632f2ff15d146101ae575b600080fd5b6003545b6040519081526020015b60405180910390f35b6101666101613660046108f3565b61034a565b604051901515815260200161014a565b610189610184366004610924565b600355565b005b610140610199366004610924565b60009081526020819052604090206001015490565b6101896101bc366004610959565b610381565b6101896101cf366004610959565b6103ac565b6001546101e7906001600160a01b031681565b6040516001600160a01b03909116815260200161014a565b61014060025481565b6101896103e4565b61018961021e366004610985565b6103f2565b6101407fd1473398bb66596de5d1ea1fc8e303ff2ac23265adc9144b1b52065dc4f0934b81565b6101896102583660046109af565b610498565b61014061026b3660046109af565b6001600160a01b031660009081526004602052604090205490565b600154600254600354604080518082018252600a815269135bd8dac815985d5b1d60b21b602080830191909152825180840190935260168352754d6f636b207661756c7420666f722074657374696e6760501b908301529390926001600160a01b03909116916101f460405161014a96959493929190610a10565b61014061050b565b610166610317366004610959565b61054b565b610140600081565b610189610332366004610959565b610574565b610140610345366004610985565b610599565b60006001600160e01b03198216637965db0b60e01b148061037b57506301ffc9a760e01b6001600160e01b03198316145b92915050565b60008281526020819052604090206001015461039c816106a6565b6103a683836106b0565b50505050565b6001600160a01b03811633146103d55760405163334bd91960e11b815260040160405180910390fd5b6103df8282610742565b505050565b60006103ef816106a6565b50565b7fd1473398bb66596de5d1ea1fc8e303ff2ac23265adc9144b1b52065dc4f0934b61041c816106a6565b600154610434906001600160a01b03163330856107ad565b6001600160a01b0383166000908152600460205260408120805484929061045c908490610a7a565b9250508190555081600260008282546104759190610a7a565b92505081905550816003600082825461048e9190610a7a565b9091555050505050565b60006104a3816106a6565b6001600160a01b03821660009081526004602052604090205480156103df576001600160a01b0383166000908152600460205260408120819055600280548392906104ef908490610a8d565b90915550506001546103df906001600160a01b03168483610814565b60006002546000036105245750670de0b6b3a764000090565b60025460035461053c90670de0b6b3a7640000610aa0565b6105469190610ab7565b905090565b6000918252602082815260408084206001600160a01b0393909316845291905290205460ff1690565b60008281526020819052604090206001015461058f816106a6565b6103a68383610742565b60007fd1473398bb66596de5d1ea1fc8e303ff2ac23265adc9144b1b52065dc4f0934b6105c5816106a6565b6001600160a01b0384166000908152600460205260409020548311156106285760405162461bcd60e51b8152602060048201526013602482015272496e73756666696369656e742073686172657360681b60448201526064015b60405180910390fd5b6001600160a01b03841660009081526004602052604081208054859290610650908490610a8d565b9250508190555082600260008282546106699190610a8d565b9250508190555082600360008282546106829190610a8d565b909155505060015461069e906001600160a01b03163385610814565b509092915050565b6103ef8133610845565b60006106bc838361054b565b61073a576000838152602081815260408083206001600160a01b03861684529091529020805460ff191660011790556106f23390565b6001600160a01b0316826001600160a01b0316847f2f8788117e7eff1d82e926ec794901d17c78024a50270940304540a733656f0d60405160405180910390a450600161037b565b50600061037b565b600061074e838361054b565b1561073a576000838152602081815260408083206001600160a01b0386168085529252808320805460ff1916905551339286917ff6391f5c32d9c69d2a47ea670b442974b53935d1edc7fd64eb21e047a839171b9190a450600161037b565b6040516001600160a01b0384811660248301528381166044830152606482018390526103a69186918216906323b872dd906084015b604051602081830303815290604052915060e01b6020820180516001600160e01b038381831617835250505050610882565b6040516001600160a01b038381166024830152604482018390526103df91859182169063a9059cbb906064016107e2565b61084f828261054b565b61087e5760405163e2517d3f60e01b81526001600160a01b03821660048201526024810183905260440161061f565b5050565b600080602060008451602086016000885af1806108a5576040513d6000823e3d81fd5b50506000513d915081156108bd5780600114156108ca565b6001600160a01b0384163b155b156103a657604051635274afe760e01b81526001600160a01b038516600482015260240161061f565b60006020828403121561090557600080fd5b81356001600160e01b03198116811461091d57600080fd5b9392505050565b60006020828403121561093657600080fd5b5035919050565b80356001600160a01b038116811461095457600080fd5b919050565b6000806040838503121561096c57600080fd5b8235915061097c6020840161093d565b90509250929050565b6000806040838503121561099857600080fd5b6109a18361093d565b946020939093013593505050565b6000602082840312156109c157600080fd5b61091d8261093d565b6000815180845260005b818110156109f0576020818501810151868301820152016109d4565b506000602082860101526020601f19601f83011685010191505092915050565b60c081526000610a2360c08301896109ca565b8281036020840152610a3581896109ca565b6001600160a01b0397909716604084015250506060810193909352608083019190915260a09091015292915050565b634e487b7160e01b600052601160045260246000fd5b8082018082111561037b5761037b610a64565b8181038181111561037b5761037b610a64565b808202811582820484141761037b5761037b610a64565b600082610ad457634e487b7160e01b600052601260045260246000fd5b50049056fea26469706673582212207c5a6d579eea1803d1f5a9478d6f4c0e9c6a4fa72eff9dc2732f628981fec2e264736f6c63430008180033",
  "linkReferences": {},
  "deployedLinkReferences": {}
}