{
  "_format": "hh-sol-artifact-1",
  "contractName": "MockAggregatorV3",
  "sourceName": "contracts/mocks/MockAggregatorV3.sol",
  "abi": [
    {
      "inputs": [
        {
          "internalType": "uint8",
          "name": "_decimals",
          "type": "uint8"
        },
        {
          "internalType": "int256",
          "name": "initialPrice",
          "type": "int256"
        }
      ],
      "stateMutability": "nonpayable",
      "type": "constructor"
    },
    {
      "inputs": [],
      "name": "decimals",
      "outputs": [
        {
          "internalType": "uint8",
          "name": "",
          "type": "uint8"
        }
      ],
      "stateMutability": "view",
      "type": "function"
    },
    {
      "inputs": [],
      "name": "latestRoundData",
      "outputs": [
        {
          "internalType": "uint80",
          "name": "roundId",
          "type": "uint80"
        },
        {
          "internalType": "int256",
          "name": "answer",
          "type": "int256"
        },
        {
          "internalType": "uint256",
          "name": "startedAt",
          "type": "uint256"
        },
        {
          "internalType": "uint256",
          "name": "updatedAt",
          "type": "uint256"
        },
        {
          "internalType": "uint80",
          "name": "answeredInRound",
          "type": "uint80"
        }
      ],
      "stateMutability": "view",
      "type": "function"
    },
    {
      "inputs": [
        {
          "internalType": "int256",
          "name": "newPrice",
          "type": "int256"
        }
      ],
      "name": "setPrice",
      "outputs": [],
      "stateMutability": "nonpayable",
      "type": "function"
    },
    {
      "inputs": [
        {
          "internalType": "uint256",
          "name": "timestamp",
          "type": "uint256"
        }
      ],
      "name": "setUpdatedAt",
      "outputs": [],
      "stateMutability": "nonpayable",
      "type": "function"
    }
  ],
  "bytecode": "0x608060405234801561001057600080fd5b5060405161024c38038061024c83398101604081905261002f91610065565b6000805460ff191660ff9390931692909217909155600190815542600255600380546001600160501b0319169091179055610099565b6000806040838503121561007857600080fd5b825160ff8116811461008957600080fd5b6020939093015192949293505050565b6101a4806100a86000396000f3fe608060405234801561001057600080fd5b506004361061004c5760003560e01c80631ecc7d8814610051578063313ce56714610066578063f7a308061461008a578063feaf968c1461009d575b600080fd5b61006461005f366004610121565b600255565b005b6000546100739060ff1681565b60405160ff90911681526020015b60405180910390f35b610064610098366004610121565b6100d7565b600354600154600254604080516001600160501b03909416808552602085019390935283018190526060830152608082015260a001610081565b600181905542600255600380546001600160501b03169060006100f98361013a565b91906101000a8154816001600160501b0302191690836001600160501b031602179055505050565b60006020828403121561013357600080fd5b5035919050565b60006001600160501b0380831681810361016457634e487b7160e01b600052601160045260246000fd5b600101939250505056fea2646970667358221220fffaab872e1c994dcbac2462f5374a114a1afd2530ef2a91675deafa85a437a664736f6c63430008180033",
  "linkReferences": {},
  "deployedLinkReferences": {}
}