{
  "_format": "hh-sol-artifact-1",
  "contractName": "LSTVault",
  "sourceName": "contracts/vaults/LSTVault.sol",
  "abi": [
    {
      "inputs": [
        {
          "internalType": "address",
          "name": "_asset",
          "type": "address"
        },
        {
          "internalType": "address payable",
          "name": "_lidoAdapter",
          "type": "address"
        },
        {
          "internalType": "address",
          "name": "admin",
          "type": "address"
        }
      ],
      "stateMutability": "nonpayable",
      "type": "constructor"
    },
    {
      "inputs": [],
      "name": "AccessControlBadConfirmation",
      "type": "error"
    },
    {
      "inputs": [
        {
          "internalType": "address",
          "name": "account",
          "type": "address"
        },
        {
          "internalType": "bytes32",
          "name": "neededRole",
          "type": "bytes32"
        }
      ],
      "name": "AccessControlUnauthorizedAccount",
      "type": "error"
    },
    {
      "inputs": [],
      "name": "EnforcedPause",
      "type": "error"
    },
    {
      "inputs": [],
      "name": "ExpectedPause",
      "type": "error"
    },
    {
      "inputs": [],
      "name": "InsufficientShares",
      "type": "error"
    },
    {
      "inputs": [],
      "name": "InvalidAmount",
      "type": "error"
    },
    {
      "inputs": [],
      "name": "InvalidWeight",
      "type": "error"
    },
    {
      "inputs": [],
      "name": "ReentrancyGuardReentrantCall",
      "type": "error"
    },
    {
      "inputs": [
        {
          "internalType": "address",
          "name": "token",
          "type": "address"
        }
      ],
      "name": "SafeERC20FailedOperation",
      "type": "error"
    },
    {
      "anonymous": false,
      "inputs": [
        {
          "indexed": true,
          "internalType": "address",
          "name": "user",
          "type": "address"
        },
        {
          "indexed": false,
          "internalType": "uint256",
          "name": "amount",
          "type": "uint256"
        },
        {
          "indexed": false,
          "internalType": "uint256",
          "name": "shares",
          "type": "uint256"
        }
      ],
      "name": "Deposit",
      "type": "event"
    },
    {
      "anonymous": false,
      "inputs": [
        {
          "indexed": false,
          "internalType": "uint256",
          "name": "rewards",
          "type": "uint256"
        }
      ],
      "name": "Harvest",
      "type": "event"
    },
    {
      "anonymous": false,
      "inputs": [
        {
          "indexed": false,
          "internalType": "address",
          "name": "account",
          "type": "address"
        }
      ],
      "name": "Paused",
      "type": "event"
    },
    {
      "anonymous": false,
      "inputs": [
        {
          "indexed": false,
          "internalType": "uint256",
          "name": "lidoWeight",
          "type": "uint256"
        }
      ],
      "name": "Rebalance",
      "type": "event"
    },
    {
      "anonymous": false,
      "inputs": [
        {
          "indexed": false,
          "internalType": "uint256",
          "name": "amount",
          "type": "uint256"
        }
      ],
      "name": "RewardsCompounded",
      "type": "event"
    },
    {
      "anonymous": false,
      "inputs": [
        {
          "indexed": true,
          "internalType": "bytes32",
          "name": "role",
          "type": "bytes32"
        },
        {
          "indexed": true,
          "internalType": "bytes32",
          "name": "previousAdminRole",
          "type": "bytes32"
        },
        {
          "indexed": true,
          "internalType": "bytes32",
          "name": "newAdminRole",
          "type": "bytes32"
        }
      ],
      "name": "RoleAdminChanged",
      "type": "event"
    },
    {
      "anonymous": false,
      "inputs": [
        {
          "indexed": true,
          "internalType": "bytes32",
          "name": "role",
          "type": "bytes32"
        },
        {
          "indexed": true,
          "internalType": "address",
          "name": "account",
          "type": "address"
        },
        {
          "indexed": true,
          "internalType": "address",
          "name": "sender",
          "type": "address"
        }
      ],
      "name": "RoleGranted",
      "type": "event"
    },
    {
      "anonymous": false,
      "inputs": [
        {
          "indexed": true,
          "internalType": "bytes32",
          "name": "role",
          "type": "bytes32"
        },
        {
          "indexed": true,
          "internalType": "address",
          "name": "account",
          "type": "address"
        },
        {
          "indexed": true,
          "internalType": "address",
          "name": "sender",
          "type": "address"
        }
      ],
      "name": "RoleRevoked",
      "type": "event"
    },
    {
      "anonymous": false,
      "inputs": [
        {
          "indexed": false,
          "internalType": "address",
          "name": "account",
          "type": "address"
        }
      ],
      "name": "Unpaused",
      "type": "event"
    },
    {
      "anonymous": false,
      "inputs": [
        {
          "indexed": true,
          "internalType": "address",
          "name": "user",
          "type": "address"
        },
        {
          "indexed": false,
          "internalType": "uint256",
          "name": "shares",
          "type": "uint256"
        },
        {
          "indexed": false,
          "internalType": "uint256",
          "name": "amount",
          "type": "uint256"
        }
      ],
      "name": "Withdraw",
      "type": "event"
    },
    {
      "inputs": [],
      "name": "DEFAULT_ADMIN_ROLE",
      "outputs": [
        {
          "internalType": "bytes32",
          "name": "",
          "type": "bytes32"
        }
      ],
      "stateMutability": "view",
      "type": "function"
    },
    {
      "inputs": [],
      "name": "REBALANCER_ROLE",
      "outputs": [
        {
          "internalType": "bytes32",
          "name": "",
          "type": "bytes32"
        }
      ],
      "stateMutability": "view",
      "type": "function"
    },
    {
      "inputs": [],
      "name": "VAULT_MANAGER_ROLE",
      "outputs": [
        {
          "internalType": "bytes32",
          "name": "",
          "type": "bytes32"
        }
      ],
      "stateMutability": "view",
      "type": "function"
    },
    {
      "inputs": [],
      "name": "asset",
      "outputs": [
        {
          "internalType": "contract IERC20",
          "name": "",
          "type": "address"
        }
      ],
      "stateMutability": "view",
      "type": "function"
    },
    {
      "inputs": [
        {
          "internalType": "address",
          "name": "user",
          "type": "address"
        }
      ],
      "name": "balanceOf",
      "outputs": [
        {
          "internalType": "uint256",
          "name": "",
          "type": "uint256"
        }
      ],
      "stateMutability": "view",
      "type": "function"
    },
    {
      "inputs": [],
      "name": "compoundRewards",
      "outputs": [],
      "stateMutability": "nonpayable",
      "type": "function"
    },
    {
      "inputs": [
        {
          "internalType": "address",
          "name": "user",
          "type": "address"
        },
        {
          "internalType": "uint256",
          "name": "amount",
          "type": "uint256"
        }
      ],
      "name": "deposit",
      "outputs": [],
      "stateMutability": "nonpayable",
      "type": "function"
    },
    {
      "inputs": [
        {
          "internalType": "address",
          "name": "user",
          "type": "address"
        }
      ],
      "name": "emergencyWithdraw",
      "outputs": [],
      "stateMutability": "nonpayable",
      "type": "function"
    },
    {
      "inputs": [],
      "name": "getAPY",
      "outputs": [
        {
          "internalType": "uint256",
          "name": "",
          "type": "uint256"
        }
      ],
      "stateMutability": "view",
      "type": "function"
    },
    {
      "inputs": [
        {
          "internalType": "bytes32",
          "name": "role",
          "type": "bytes32"
        }
      ],
      "name": "getRoleAdmin",
      "outputs": [
        {
          "internalType": "bytes32",
          "name": "",
          "type": "bytes32"
        }
      ],
      "stateMutability": "view",
      "type": "function"
    },
    {
      "inputs": [],
      "name": "getStrategyBalances",
      "outputs": [
        {
          "internalType": "uint256",
          "name": "lidoBalance",
          "type": "uint256"
        }
      ],
      "stateMutability": "view",
      "type": "function"
    },
    {
      "inputs": [
        {
          "internalType": "address",
          "name": "user",
          "type": "address"
        }
      ],
      "name": "getUserShares",
      "outputs": [
        {
          "internalType": "uint256",
          "name": "",
          "type": "uint256"
        }
      ],
      "stateMutability": "view",
      "type": "function"
    },
    {
      "inputs": [],
      "name": "getVaultInfo",
      "outputs": [
        {
          "internalType": "string",
          "name": "name",
          "type": "string"
        },
        {
          "internalType": "string",
          "name": "description",
          "type": "string"
        },
        {
          "internalType": "address",
          "name": "assetAddr",
          "type": "address"
        },
        {
          "internalType": "uint256",
          "name": "totalSharesOut",
          "type": "uint256"
        },
        {
          "internalType": "uint256",
          "name": "totalAssetsValue",
          "type": "uint256"
        },
        {
          "internalType": "uint256",
          "name": "apy",
          "type": "uint256"
        }
      ],
      "stateMutability": "view",
      "type": "function"
    },
    {
      "inputs": [
        {
          "internalType": "bytes32",
          "name": "role",
          "type": "bytes32"
        },
        {
          "internalType": "address",
          "name": "account",
          "type": "address"
        }
      ],
      "name": "grantRole",
      "outputs": [],
      "stateMutability": "nonpayable",
      "type": "function"
    },
    {
      "inputs": [],
      "name": "harvest",
      "outputs": [],
      "stateMutability": "nonpayable",
      "type": "function"
    },
    {
      "inputs": [
        {
          "internalType": "bytes32",
          "name": "role",
          "type": "bytes32"
        },
        {
          "internalType": "address",
          "name": "account",
          "type": "address"
        }
      ],
      "name": "hasRole",
      "outputs": [
        {
          "internalType": "bool",
          "name": "",
          "type": "bool"
        }
      ],
      "stateMutability": "view",
      "type": "function"
    },
    {
      "inputs": [],
      "name": "lastRebaseTime",
      "outputs": [
        {
          "internalType": "uint256",
          "name": "",
          "type": "uint256"
        }
      ],
      "stateMutability": "view",
      "type": "function"
    },
    {
      "inputs": [],
      "name": "lidoAdapter",
      "outputs": [
        {
          "internalType": "contract LidoAdapter",
          "name": "",
          "type": "address"
        }
      ],
      "stateMutability": "view",
      "type": "function"
    },
    {
      "inputs": [],
      "name": "lidoWeight",
      "outputs": [
        {
          "internalType": "uint256",
          "name": "",
          "type": "uint256"
        }
      ],
      "stateMutability": "view",
      "type": "function"
    },
    {
      "inputs": [],
      "name": "pause",
      "outputs": [],
      "stateMutability": "nonpayable",
      "type": "function"
    },
    {
      "inputs": [],
      "name": "paused",
      "outputs": [
        {
          "internalType": "bool",
          "name": "",
          "type": "bool"
        }
      ],
      "stateMutability": "view",
      "type": "function"
    },
    {
      "inputs": [
        {
          "internalType": "uint256",
          "name": "newLidoWeight",
          "type": "uint256"
        }
      ],
      "name": "rebalance",
      "outputs": [],
      "stateMutability": "nonpayable",
      "type": "function"
    },
    {
      "inputs": [
        {
          "internalType": "bytes32",
          "name": "role",
          "type": "bytes32"
        },
        {
          "internalType": "address",
          "name": "callerConfirmation",
          "type": "address"
        }
      ],
      "name": "renounceRole",
      "outputs": [],
      "stateMutability": "nonpayable",
      "type": "function"
    },
    {
      "inputs": [
        {
          "internalType": "bytes32",
          "name": "role",
          "type": "bytes32"
        },
        {
          "internalType": "address",
          "name": "account",
          "type": "address"
        }
      ],
      "name": "revokeRole",
      "outputs": [],
      "stateMutability": "nonpayable",
      "type": "function"
    },
    {
      "inputs": [],
      "name": "sharePrice",
      "outputs": [
        {
          "internalType": "uint256",
          "name": "",
          "type": "uint256"
        }
      ],
      "stateMutability": "view",
      "type": "function"
    },
    {
      "inputs": [
        {
          "internalType": "bytes4",
          "name": "interfaceId",
          "type": "bytes4"
        }
      ],
      "name": "supportsInterface",
      "outputs": [
        {
          "internalType": "bool",
          "name": "",
          "type": "bool"
        }
      ],
      "stateMutability": "view",
      "type": "function"
    },
    {
      "inputs": [],
      "name": "totalAssets",
      "outputs": [
        {
          "internalType": "uint256",
          "name": "",
          "type": "uint256"
        }
      ],
      "stateMutability": "view",
      "type": "function"
    },
    {
      "inputs": [],
      "name": "totalDeposited",
      "outputs": [
        {
          "internalType": "uint256",
          "name": "",
          "type": "uint256"
        }
      ],
      "stateMutability": "view",
      "type": "function"
    },
    {
      "inputs": [],
      "name": "totalRewards",
      "outputs": [
        {
          "internalType": "uint256",
          "name": "",
          "type": "uint256"
        }
      ],
      "stateMutability": "view",
      "type": "function"
    },
    {
      "inputs": [],
      "name": "totalShares",
      "outputs": [
        {
          "internalType": "uint256",
          "name": "",
          "type": "uint256"
        }
      ],
      "stateMutability": "view",
      "type": "function"
    },
    {
      "inputs": [],
      "name": "unpause",
      "outputs": [],
      "stateMutability": "nonpayable",
      "type": "function"
    },
    {
      "inputs": [
        {
          "internalType": "address",
          "name": "user",
          "type": "address"
        },
        {
          "internalType": "uint256",
          "name": "sharesToBurn",
          "type": "uint256"
        }
      ],
      "name": "withdraw",
      "outputs": [
        {
          "internalType": "uint256",
          "name": "amount",
          "type": "uint256"
        }
      ],
      "stateMutability": "nonpayable",
      "type": "function"
    }
  ],
  "bytecode": "0x60c06040526127106006553480156200001757600080fd5b5060405162001e3b38038062001e3b8339810160408190526200003a916200018f565b60016002556001600160a01b03808416608052821660a0524260045562000063600082620000c7565b50620000907fd1473398bb66596de5d1ea1fc8e303ff2ac23265adc9144b1b52065dc4f0934b82620000c7565b50620000bd7fccc64574297998b6c3edf6078cc5e01268465ff116954e3af02ff3a70a730f4682620000c7565b50505050620001e3565b6000828152602081815260408083206001600160a01b038516845290915281205460ff166200016c576000838152602081815260408083206001600160a01b03861684529091529020805460ff19166001179055620001233390565b6001600160a01b0316826001600160a01b0316847f2f8788117e7eff1d82e926ec794901d17c78024a50270940304540a733656f0d60405160405180910390a450600162000170565b5060005b92915050565b6001600160a01b03811681146200018c57600080fd5b50565b600080600060608486031215620001a557600080fd5b8351620001b28162000176565b6020850151909350620001c58162000176565b6040850151909250620001d88162000176565b809150509250925092565b60805160a051611b98620002a360003960008181610330015281816105c30152818161086f01528181610ae901528181610f53015281816110b201528181611165015281816111fe015281816114f3015281816115a60152818161171d01526117cf0152600081816102950152818161047e015281816107aa01528181610905015281816109ce01528181610a1401528181610bd401528181610dd601528181610e7901528181611027015281816110e101526115220152611b986000f3fe608060405234801561001057600080fd5b50600436106101f05760003560e01c80635e5a24a41161010f578063a217fddf116100a2578063d547741f11610071578063d547741f1461041d578063f3fef3a314610430578063f499301814610443578063ff50abdc1461045657600080fd5b8063a217fddf14610405578063ba0cb22b14610397578063c00c9f7f1461040d578063d2cbf7ad1461041557600080fd5b80638456cb59116100de5780638456cb59146103da57806387269729146103e257806389aabcfc146103ea57806391d14854146103f257600080fd5b80635e5a24a41461035d5780636ff1c9bc1461038457806370a08231146103975780637f98aa71146103c057600080fd5b80633a98ef391161018757806347e7ef241161015657806347e7ef24146102f1578063490b48f8146103045780634dda1fbf1461032b5780635c975abb1461035257600080fd5b80633a98ef39146102cf5780633ae56e56146102d85780633f4ba83a146102e15780634641257d146102e957600080fd5b8063248a9ca3116101c3578063248a9ca3146102455780632f2ff15d1461026857806336568abe1461027d57806338d52e0f1461029057600080fd5b806301e1d114146101f557806301ffc9a7146102105780630e15561a146102335780631924063e1461023c575b600080fd5b6101fd61045f565b6040519081526020015b60405180910390f35b61022361021e36600461190a565b610500565b6040519015158152602001610207565b6101fd60075481565b6101fd60045481565b6101fd61025336600461193b565b60009081526020819052604090206001015490565b61027b610276366004611970565b610537565b005b61027b61028b366004611970565b610562565b6102b77f000000000000000000000000000000000000000000000000000000000000000081565b6040516001600160a01b039091168152602001610207565b6101fd60035481565b6101fd60065481565b61027b61059a565b61027b6105b0565b61027b6102ff36600461199c565b6106ad565b6101fd7fccc64574297998b6c3edf6078cc5e01268465ff116954e3af02ff3a70a730f4681565b6102b77f000000000000000000000000000000000000000000000000000000000000000081565b60015460ff16610223565b6101fd7fd1473398bb66596de5d1ea1fc8e303ff2ac23265adc9144b1b52065dc4f0934b81565b61027b6103923660046119c6565b61082a565b6101fd6103a53660046119c6565b6001600160a01b031660009081526005602052604090205490565b6103c86109fd565b60405161020796959493929190611a27565b61027b610a92565b6101fd610aa5565b6101fd610ae5565b610223610400366004611970565b610b69565b6101fd600081565b61027b610b92565b6101fd610c8f565b61027b61042b366004611970565b610c99565b6101fd61043e36600461199c565b610cbe565b61027b61045136600461193b565b610ef6565b6101fd60085481565b6000610469610ae5565b6040516370a0823160e01b81523060048201527f00000000000000000000000000000000000000000000000000000000000000006001600160a01b0316906370a0823190602401602060405180830381865afa1580156104cd573d6000803e3d6000fd5b505050506040513d601f19601f820116820180604052508101906104f19190611a7b565b6104fb9190611aaa565b905090565b60006001600160e01b03198216637965db0b60e01b148061053157506301ffc9a760e01b6001600160e01b03198316145b92915050565b600082815260208190526040902060010154610552816112a3565b61055c83836112ad565b50505050565b6001600160a01b038116331461058b5760405163334bd91960e11b815260040160405180910390fd5b610595828261133f565b505050565b60006105a5816112a3565b6105ad6113aa565b50565b6105b86113fc565b6000600754905060007f00000000000000000000000000000000000000000000000000000000000000006001600160a01b0316634641257d6040518163ffffffff1660e01b81526004016020604051808303816000875af1158015610621573d6000803e3d6000fd5b505050506040513d601f19601f820116820180604052508101906106459190611a7b565b905080600760008282546106599190611aaa565b90915550506007547f80f97f878e16410266694f134ddf012f2be424f54f8b5cafa107eccc51d00d589061068e908490611abd565b60405190815260200160405180910390a150506106ab6001600255565b565b7fd1473398bb66596de5d1ea1fc8e303ff2ac23265adc9144b1b52065dc4f0934b6106d7816112a3565b6106df6113fc565b6106e7611424565b816000036107085760405163162908e360e11b815260040160405180910390fd5b600060035460000361071b57508161073d565b61072361045f565b6003546107309085611ad0565b61073a9190611ae7565b90505b6001600160a01b03841660009081526005602052604081208054839290610765908490611aaa565b92505081905550806003600082825461077e9190611aaa565b9250508190555082600860008282546107979190611aaa565b909155506107d290506001600160a01b037f000000000000000000000000000000000000000000000000000000000000000016333086611448565b6107db836114af565b60408051848152602081018390526001600160a01b038616917f90890809c654f11d6e72a28fa60149770a0d11ec6c92319d6ceb2bb0a4ea1a15910160405180910390a2506105956001600255565b6000610835816112a3565b6001600160a01b0382166000908152600560205260408120549081900361085b57505050565b6000610865610ae5565b905080156108e1577f00000000000000000000000000000000000000000000000000000000000000006001600160a01b031663db2e21bc6040518163ffffffff1660e01b8152600401600060405180830381600087803b1580156108c857600080fd5b505af11580156108dc573d6000803e3d6000fd5b505050505b6003546040516370a0823160e01b8152306004820152600091906001600160a01b037f000000000000000000000000000000000000000000000000000000000000000016906370a0823190602401602060405180830381865afa15801561094c573d6000803e3d6000fd5b505050506040513d601f19601f820116820180604052508101906109709190611a7b565b61097a9085611ad0565b6109849190611ae7565b6001600160a01b03861660009081526005602052604081208190556003805492935085929091906109b6908490611abd565b909155505080156109f5576109f56001600160a01b037f000000000000000000000000000000000000000000000000000000000000000016868361160e565b5050505b5050565b6060806000806000806000610a1061163f565b90507f0000000000000000000000000000000000000000000000000000000000000000600354610a3e61045f565b83604051806040016040528060098152602001681314d50815985d5b1d60ba1b81525093929190604051806060016040528060378152602001611b2c60379139949c949b5092995090975095509350915050565b6000610a9d816112a3565b6105ad6116de565b6000600354600003610abe5750670de0b6b3a764000090565b600354610ac961045f565b610adb90670de0b6b3a7640000611ad0565b6104fb9190611ae7565b60007f00000000000000000000000000000000000000000000000000000000000000006001600160a01b03166312065fe06040518163ffffffff1660e01b8152600401602060405180830381865afa158015610b45573d6000803e3d6000fd5b505050506040513d601f19601f820116820180604052508101906104fb9190611a7b565b6000918252602082815260408084206001600160a01b0393909316845291905290205460ff1690565b7fccc64574297998b6c3edf6078cc5e01268465ff116954e3af02ff3a70a730f46610bbc816112a3565b6040516370a0823160e01b81523060048201526000907f00000000000000000000000000000000000000000000000000000000000000006001600160a01b0316906370a0823190602401602060405180830381865afa158015610c23573d6000803e3d6000fd5b505050506040513d601f19601f82011682018060405250810190610c479190611a7b565b905080156109f957610c58816114af565b6040518181527f33222d90f0305cdd84f37927a34b36077e5328c8318dc017be0eed3e0305fa2e9060200160405180910390a15050565b60006104fb61163f565b600082815260208190526040902060010154610cb4816112a3565b61055c838361133f565b60007fd1473398bb66596de5d1ea1fc8e303ff2ac23265adc9144b1b52065dc4f0934b610cea816112a3565b610cf26113fc565b610cfa611424565b82600003610d1b5760405163162908e360e11b815260040160405180910390fd5b6001600160a01b038416600090815260056020526040902054831115610d5457604051633999656760e01b815260040160405180910390fd5b600354610d5f61045f565b610d699085611ad0565b610d739190611ae7565b6001600160a01b038516600090815260056020526040812080549294508592909190610da0908490611abd565b925050819055508260036000828254610db99190611abd565b90915550506040516370a0823160e01b81523060048201526000907f00000000000000000000000000000000000000000000000000000000000000006001600160a01b0316906370a0823190602401602060405180830381865afa158015610e25573d6000803e3d6000fd5b505050506040513d601f19601f82011682018060405250810190610e499190611a7b565b905082811015610e6c576000610e5f8285611abd565b9050610e6a81611719565b505b610ea06001600160a01b037f000000000000000000000000000000000000000000000000000000000000000016338561160e565b60408051858152602081018590526001600160a01b038716917ff279e6a1f5e320cca91135676d9cb6e44ca8a08c0b88342bcdb1144f6511b568910160405180910390a250610eef6001600255565b5092915050565b7fccc64574297998b6c3edf6078cc5e01268465ff116954e3af02ff3a70a730f46610f20816112a3565b612710821115610f435760405163585b926360e01b815260040160405180910390fd5b6000610f4d61045f565b905060007f00000000000000000000000000000000000000000000000000000000000000006001600160a01b03166312065fe06040518163ffffffff1660e01b8152600401602060405180830381865afa158015610faf573d6000803e3d6000fd5b505050506040513d601f19601f82011682018060405250810190610fd39190611a7b565b90506000612710610fe48685611ad0565b610fee9190611ae7565b9050818111156111d15760006110048383611abd565b6040516370a0823160e01b81523060048201529091506000906001600160a01b037f000000000000000000000000000000000000000000000000000000000000000016906370a0823190602401602060405180830381865afa15801561106e573d6000803e3d6000fd5b505050506040513d601f19601f820116820180604052508101906110929190611a7b565b90508181106111ca5760405163095ea7b360e01b81526001600160a01b037f000000000000000000000000000000000000000000000000000000000000000081166004830152602482018490527f0000000000000000000000000000000000000000000000000000000000000000169063095ea7b3906044016020604051808303816000875af115801561112a573d6000803e3d6000fd5b505050506040513d601f19601f8201168201806040525081019061114e9190611b09565b5060405163b6b55f2560e01b8152600481018390527f00000000000000000000000000000000000000000000000000000000000000006001600160a01b03169063b6b55f2590602401600060405180830381600087803b1580156111b157600080fd5b505af11580156111c5573d6000803e3d6000fd5b505050505b5050611264565b818110156112645760006111e58284611abd565b604051632e1a7d4d60e01b8152600481018290529091507f00000000000000000000000000000000000000000000000000000000000000006001600160a01b031690632e1a7d4d90602401600060405180830381600087803b15801561124a57600080fd5b505af115801561125e573d6000803e3d6000fd5b50505050505b60068590556040518581527f811d4760f1a92875eb76dbd3dc2359544b2f6a000ba5b78784c0b105b3469bd09060200160405180910390a15050505050565b6105ad8133611838565b60006112b98383610b69565b611337576000838152602081815260408083206001600160a01b03861684529091529020805460ff191660011790556112ef3390565b6001600160a01b0316826001600160a01b0316847f2f8788117e7eff1d82e926ec794901d17c78024a50270940304540a733656f0d60405160405180910390a4506001610531565b506000610531565b600061134b8383610b69565b15611337576000838152602081815260408083206001600160a01b0386168085529252808320805460ff1916905551339286917ff6391f5c32d9c69d2a47ea670b442974b53935d1edc7fd64eb21e047a839171b9190a4506001610531565b6113b2611876565b6001805460ff191690557f5db9ee0a495bf2e6ff9c91a7834c1ba4fdd244a5e8aa4e537bd38aeae4b073aa335b6040516001600160a01b03909116815260200160405180910390a1565b600280540361141e57604051633ee5aeb560e01b815260040160405180910390fd5b60028055565b60015460ff16156106ab5760405163d93c066560e01b815260040160405180910390fd5b6040516001600160a01b03848116602483015283811660448301526064820183905261055c9186918216906323b872dd906084015b604051602081830303815290604052915060e01b6020820180516001600160e01b038381831617835250505050611899565b600654156105ad576000612710600654836114ca9190611ad0565b6114d49190611ae7565b905080156109f95760405163095ea7b360e01b81526001600160a01b037f000000000000000000000000000000000000000000000000000000000000000081166004830152602482018390527f0000000000000000000000000000000000000000000000000000000000000000169063095ea7b3906044016020604051808303816000875af115801561156b573d6000803e3d6000fd5b505050506040513d601f19601f8201168201806040525081019061158f9190611b09565b5060405163b6b55f2560e01b8152600481018290527f00000000000000000000000000000000000000000000000000000000000000006001600160a01b03169063b6b55f2590602401600060405180830381600087803b1580156115f257600080fd5b505af1158015611606573d6000803e3d6000fd5b505050505050565b6040516001600160a01b0383811660248301526044820183905261059591859182169063a9059cbb9060640161147d565b60006008546000148061165457506004544211155b1561165f5750600090565b60006004544261166f9190611abd565b9050600061167b61045f565b9050600854811161168f5760009250505090565b60006008548261169f9190611abd565b90506000836008546116b19190611ad0565b6116bf836301e13380611ad0565b6116cb90612710611ad0565b6116d59190611ae7565b95945050505050565b6116e6611424565b6001805460ff1916811790557f62e78cea01bee320cd4e420270b5ea74000d11b0c9f74754ebdbfc544b05a258336113df565b60007f00000000000000000000000000000000000000000000000000000000000000006001600160a01b03166312065fe06040518163ffffffff1660e01b8152600401602060405180830381865afa158015611779573d6000803e3d6000fd5b505050506040513d601f19601f8201168201806040525081019061179d9190611a7b565b905080156109f95760008183116117b457826117b6565b815b604051632e1a7d4d60e01b8152600481018290529091507f00000000000000000000000000000000000000000000000000000000000000006001600160a01b031690632e1a7d4d90602401600060405180830381600087803b15801561181b57600080fd5b505af115801561182f573d6000803e3d6000fd5b50505050505050565b6118428282610b69565b6109f95760405163e2517d3f60e01b81526001600160a01b0382166004820152602481018390526044015b60405180910390fd5b60015460ff166106ab57604051638dfc202b60e01b815260040160405180910390fd5b600080602060008451602086016000885af1806118bc576040513d6000823e3d81fd5b50506000513d915081156118d45780600114156118e1565b6001600160a01b0384163b155b1561055c57604051635274afe760e01b81526001600160a01b038516600482015260240161186d565b60006020828403121561191c57600080fd5b81356001600160e01b03198116811461193457600080fd5b9392505050565b60006020828403121561194d57600080fd5b5035919050565b80356001600160a01b038116811461196b57600080fd5b919050565b6000806040838503121561198357600080fd5b8235915061199360208401611954565b90509250929050565b600080604083850312156119af57600080fd5b6119b883611954565b946020939093013593505050565b6000602082840312156119d857600080fd5b61193482611954565b6000815180845260005b81811015611a07576020818501810151868301820152016119eb565b506000602082860101526020601f19601f83011685010191505092915050565b60c081526000611a3a60c08301896119e1565b8281036020840152611a4c81896119e1565b6001600160a01b0397909716604084015250506060810193909352608083019190915260a09091015292915050565b600060208284031215611a8d57600080fd5b5051919050565b634e487b7160e01b600052601160045260246000fd5b8082018082111561053157610531611a94565b8181038181111561053157610531611a94565b808202811582820484141761053157610531611a94565b600082611b0457634e487b7160e01b600052601260045260246000fd5b500490565b600060208284031215611b1b57600080fd5b8151801515811461193457600080fdfe4c6971756964205374616b696e6720546f6b656e207661756c742070726f766964696e6720455448207374616b696e67207969656c6473a2646970667358221220adbd0af76a7c0a54b16cb711e8c9470f68aef25d43a25d4209ab89452241f9f764736f6c63430008180033",
  "linkReferences": {},
  "deployedLinkReferences": {}
}